{
  "contractName": "Crowdfunding",
  "abi": [
    {
      "inputs": [
        {
          "internalType": "uint256",
          "name": "",
          "type": "uint256"
        }
      ],
      "name": "campaigns",
      "outputs": [
        {
          "internalType": "address payable",
          "name": "creator",
          "type": "address"
        },
        {
          "internalType": "string",
          "name": "title",
          "type": "string"
        },
        {
          "internalType": "string",
          "name": "description",
          "type": "string"
        },
        {
          "internalType": "uint256",
          "name": "goal",
          "type": "uint256"
        },
        {
          "internalType": "uint256",
          "name": "deadline",
          "type": "uint256"
        },
        {
          "internalType": "string",
          "name": "image",
          "type": "string"
        },
        {
          "internalType": "uint256",
          "name": "raised",
          "type": "uint256"
        },
        {
          "internalType": "bool",
          "name": "complete",
          "type": "bool"
        }
      ],
      "stateMutability": "view",
      "type": "function",
      "constant": true
    },
    {
      "inputs": [],
      "name": "numCampaigns",
      "outputs": [
        {
          "internalType": "uint256",
          "name": "",
          "type": "uint256"
        }
      ],
      "stateMutability": "view",
      "type": "function",
      "constant": true
    },
    {
      "inputs": [],
      "name": "sayHello",
      "outputs": [
        {
          "internalType": "string",
          "name": "",
          "type": "string"
        }
      ],
      "stateMutability": "pure",
      "type": "function",
      "constant": true
    },
    {
      "inputs": [
        {
          "internalType": "string",
          "name": "_title",
          "type": "string"
        },
        {
          "internalType": "string",
          "name": "_description",
          "type": "string"
        },
        {
          "internalType": "uint256",
          "name": "_goal",
          "type": "uint256"
        },
        {
          "internalType": "uint256",
          "name": "_deadline",
          "type": "uint256"
        },
        {
          "internalType": "string",
          "name": "_image",
          "type": "string"
        }
      ],
      "name": "createCampaign",
      "outputs": [
        {
          "internalType": "uint256",
          "name": "",
          "type": "uint256"
        },
        {
          "internalType": "address",
          "name": "",
          "type": "address"
        },
        {
          "internalType": "string",
          "name": "",
          "type": "string"
        },
        {
          "internalType": "string",
          "name": "",
          "type": "string"
        },
        {
          "internalType": "uint256",
          "name": "",
          "type": "uint256"
        },
        {
          "internalType": "uint256",
          "name": "",
          "type": "uint256"
        },
        {
          "internalType": "string",
          "name": "",
          "type": "string"
        },
        {
          "internalType": "uint256",
          "name": "",
          "type": "uint256"
        },
        {
          "internalType": "bool",
          "name": "",
          "type": "bool"
        }
      ],
      "stateMutability": "nonpayable",
      "type": "function"
    },
    {
      "inputs": [
        {
          "internalType": "uint256",
          "name": "_campaignIndex",
          "type": "uint256"
        }
      ],
      "name": "contribute",
      "outputs": [],
      "stateMutability": "payable",
      "type": "function",
      "payable": true
    },
    {
      "inputs": [
        {
          "internalType": "uint256",
          "name": "_campaignIndex",
          "type": "uint256"
        }
      ],
      "name": "getContribute",
      "outputs": [
        {
          "internalType": "address[]",
          "name": "",
          "type": "address[]"
        },
        {
          "internalType": "uint256[]",
          "name": "",
          "type": "uint256[]"
        }
      ],
      "stateMutability": "view",
      "type": "function",
      "constant": true
    },
    {
      "inputs": [],
      "name": "getCampaigns",
      "outputs": [
        {
          "internalType": "address[]",
          "name": "",
          "type": "address[]"
        },
        {
          "internalType": "string[]",
          "name": "",
          "type": "string[]"
        },
        {
          "internalType": "string[]",
          "name": "",
          "type": "string[]"
        },
        {
          "internalType": "uint256[]",
          "name": "",
          "type": "uint256[]"
        },
        {
          "internalType": "uint256[]",
          "name": "",
          "type": "uint256[]"
        },
        {
          "internalType": "string[]",
          "name": "",
          "type": "string[]"
        },
        {
          "internalType": "uint256[]",
          "name": "",
          "type": "uint256[]"
        },
        {
          "internalType": "bool[]",
          "name": "",
          "type": "bool[]"
        }
      ],
      "stateMutability": "view",
      "type": "function",
      "constant": true
    }
  ],
  "bytecode": "0x608060405234801561001057600080fd5b50611f0c806100206000396000f3fe6080604052600436106100705760003560e01c8063c1cbbca71161004e578063c1cbbca714610116578063d4e3dd6f14610132578063dd4bee2014610177578063ef5fb05b146101b557610070565b8063141961bc146100755780632c0f7b6f146100b9578063a6b03633146100e4575b600080fd5b34801561008157600080fd5b5061009c600480360381019061009791906110fa565b6101e0565b6040516100b0989796959493929190611222565b60405180910390f35b3480156100c557600080fd5b506100ce6103ed565b6040516100db91906112b5565b60405180910390f35b3480156100f057600080fd5b506100f96103f3565b60405161010d989796959493929190611628565b60405180910390f35b610130600480360381019061012b91906110fa565b6109f7565b005b34801561013e57600080fd5b5061015960048036038101906101549190611813565b610c03565b60405161016e999897969594939291906118f1565b60405180910390f35b34801561018357600080fd5b5061019e600480360381019061019991906110fa565b610f61565b6040516101ac929190611993565b60405180910390f35b3480156101c157600080fd5b506101ca611073565b6040516101d791906119ca565b60405180910390f35b60016020528060005260406000206000915090508060000160009054906101000a900473ffffffffffffffffffffffffffffffffffffffff169080600101805461022990611a1b565b80601f016020809104026020016040519081016040528092919081815260200182805461025590611a1b565b80156102a25780601f10610277576101008083540402835291602001916102a2565b820191906000526020600020905b81548152906001019060200180831161028557829003601f168201915b5050505050908060020180546102b790611a1b565b80601f01602080910402602001604051908101604052809291908181526020018280546102e390611a1b565b80156103305780601f1061030557610100808354040283529160200191610330565b820191906000526020600020905b81548152906001019060200180831161031357829003601f168201915b50505050509080600301549080600401549080600501805461035190611a1b565b80601f016020809104026020016040519081016040528092919081815260200182805461037d90611a1b565b80156103ca5780601f1061039f576101008083540402835291602001916103ca565b820191906000526020600020905b8154815290600101906020018083116103ad57829003601f168201915b50505050509080600601549080600a0160009054906101000a900460ff16905088565b60005481565b6060806060806060806060806000805467ffffffffffffffff81111561041c5761041b6116e8565b5b60405190808252806020026020018201604052801561044a5781602001602082028036833780820191505090505b5090506000805467ffffffffffffffff81111561046a576104696116e8565b5b60405190808252806020026020018201604052801561049d57816020015b60608152602001906001900390816104885790505b5090506000805467ffffffffffffffff8111156104bd576104bc6116e8565b5b6040519080825280602002602001820160405280156104f057816020015b60608152602001906001900390816104db5790505b5090506000805467ffffffffffffffff8111156105105761050f6116e8565b5b60405190808252806020026020018201604052801561053e5781602001602082028036833780820191505090505b5090506000805467ffffffffffffffff81111561055e5761055d6116e8565b5b60405190808252806020026020018201604052801561058c5781602001602082028036833780820191505090505b5090506000805467ffffffffffffffff8111156105ac576105ab6116e8565b5b6040519080825280602002602001820160405280156105df57816020015b60608152602001906001900390816105ca5790505b5090506000805467ffffffffffffffff8111156105ff576105fe6116e8565b5b60405190808252806020026020018201604052801561062d5781602001602082028036833780820191505090505b5090506000805467ffffffffffffffff81111561064d5761064c6116e8565b5b60405190808252806020026020018201604052801561067b5781602001602082028036833780820191505090505b50905060005b6000548110156109cc5760006001600083815260200190815260200160002090508060000160009054906101000a900473ffffffffffffffffffffffffffffffffffffffff168a83815181106106da576106d9611a4c565b5b602002602001019073ffffffffffffffffffffffffffffffffffffffff16908173ffffffffffffffffffffffffffffffffffffffff168152505080600101805461072390611a1b565b80601f016020809104026020016040519081016040528092919081815260200182805461074f90611a1b565b801561079c5780601f106107715761010080835404028352916020019161079c565b820191906000526020600020905b81548152906001019060200180831161077f57829003601f168201915b50505050508983815181106107b4576107b3611a4c565b5b60200260200101819052508060020180546107ce90611a1b565b80601f01602080910402602001604051908101604052809291908181526020018280546107fa90611a1b565b80156108475780601f1061081c57610100808354040283529160200191610847565b820191906000526020600020905b81548152906001019060200180831161082a57829003601f168201915b505050505088838151811061085f5761085e611a4c565b5b6020026020010181905250806003015487838151811061088257610881611a4c565b5b60200260200101818152505080600401548683815181106108a6576108a5611a4c565b5b6020026020010181815250508060050180546108c190611a1b565b80601f01602080910402602001604051908101604052809291908181526020018280546108ed90611a1b565b801561093a5780601f1061090f5761010080835404028352916020019161093a565b820191906000526020600020905b81548152906001019060200180831161091d57829003601f168201915b505050505085838151811061095257610951611a4c565b5b6020026020010181905250806006015484838151811061097557610974611a4c565b5b60200260200101818152505080600a0160009054906101000a900460ff168383815181106109a6576109a5611a4c565b5b6020026020010190151590811515815250505080806109c490611aaa565b915050610681565b5087878787878787879f509f509f509f509f509f509f509f5050505050505050509091929394959697565b600060016000838152602001908152602001600020905080600a0160009054906101000a900460ff1615610a60576040517f08c379a0000000000000000000000000000000000000000000000000000000008152600401610a5790611b3e565b60405180910390fd5b80600801339080600181540180825580915050600190039060005260206000200160009091909190916101000a81548173ffffffffffffffffffffffffffffffffffffffff021916908373ffffffffffffffffffffffffffffffffffffffff16021790555080600901349080600181540180825580915050600190039060005260206000200160009091909190915055348160070160003373ffffffffffffffffffffffffffffffffffffffff1673ffffffffffffffffffffffffffffffffffffffff1681526020019081526020016000206000828254610b419190611b5e565b9250508190555034816006016000828254610b5c9190611b5e565b925050819055508060030154816006015410610bff57600181600a0160006101000a81548160ff0219169083151502179055508060000160009054906101000a900473ffffffffffffffffffffffffffffffffffffffff1673ffffffffffffffffffffffffffffffffffffffff166108fc82600601549081150290604051600060405180830381858888f19350505050158015610bfd573d6000803e3d6000fd5b505b5050565b600080606080600080606060008060006001600080548152602001908152602001600020905042816004015410610c6f576040517f08c379a0000000000000000000000000000000000000000000000000000000008152600401610c6690611c04565b60405180910390fd5b338160000160006101000a81548173ffffffffffffffffffffffffffffffffffffffff021916908373ffffffffffffffffffffffffffffffffffffffff1602179055508e816001019081610cc39190611dd0565b508d816002019081610cd59190611dd0565b508c81600301819055508b81600401819055508a816005019081610cf99190611dd0565b5060008160060181905550600081600a0160006101000a81548160ff021916908315150217905550600080815480929190610d3390611aaa565b91905055506001600054610d479190611ea2565b8160000160009054906101000a900473ffffffffffffffffffffffffffffffffffffffff1682600101836002018460030154856004015486600501876006015488600a0160009054906101000a900460ff16868054610da590611a1b565b80601f0160208091040260200160405190810160405280929190818152602001828054610dd190611a1b565b8015610e1e5780601f10610df357610100808354040283529160200191610e1e565b820191906000526020600020905b815481529060010190602001808311610e0157829003601f168201915b50505050509650858054610e3190611a1b565b80601f0160208091040260200160405190810160405280929190818152602001828054610e5d90611a1b565b8015610eaa5780601f10610e7f57610100808354040283529160200191610eaa565b820191906000526020600020905b815481529060010190602001808311610e8d57829003601f168201915b50505050509550828054610ebd90611a1b565b80601f0160208091040260200160405190810160405280929190818152602001828054610ee990611a1b565b8015610f365780601f10610f0b57610100808354040283529160200191610f36565b820191906000526020600020905b815481529060010190602001808311610f1957829003601f168201915b5050505050925099509950995099509950995099509950995050959b50959b50959b92985095509550565b60608060016000848152602001908152602001600020600801600160008581526020019081526020016000206009018180548060200260200160405190810160405280929190818152602001828054801561101157602002820191906000526020600020905b8160009054906101000a900473ffffffffffffffffffffffffffffffffffffffff1673ffffffffffffffffffffffffffffffffffffffff1681526020019060010190808311610fc7575b505050505091508080548060200260200160405190810160405280929190818152602001828054801561106357602002820191906000526020600020905b81548152602001906001019080831161104f575b5050505050905091509150915091565b60606040518060400160405280600d81526020017f48656c6c6f2c20576f726c642100000000000000000000000000000000000000815250905090565b6000604051905090565b600080fd5b600080fd5b6000819050919050565b6110d7816110c4565b81146110e257600080fd5b50565b6000813590506110f4816110ce565b92915050565b6000602082840312156111105761110f6110ba565b5b600061111e848285016110e5565b91505092915050565b600073ffffffffffffffffffffffffffffffffffffffff82169050919050565b600061115282611127565b9050919050565b61116281611147565b82525050565b600081519050919050565b600082825260208201905092915050565b60005b838110156111a2578082015181840152602081019050611187565b60008484015250505050565b6000601f19601f8301169050919050565b60006111ca82611168565b6111d48185611173565b93506111e4818560208601611184565b6111ed816111ae565b840191505092915050565b611201816110c4565b82525050565b60008115159050919050565b61121c81611207565b82525050565b600061010082019050611238600083018b611159565b818103602083015261124a818a6111bf565b9050818103604083015261125e81896111bf565b905061126d60608301886111f8565b61127a60808301876111f8565b81810360a083015261128c81866111bf565b905061129b60c08301856111f8565b6112a860e0830184611213565b9998505050505050505050565b60006020820190506112ca60008301846111f8565b92915050565b600081519050919050565b600082825260208201905092915050565b6000819050602082019050919050565b600061130782611127565b9050919050565b611317816112fc565b82525050565b6000611329838361130e565b60208301905092915050565b6000602082019050919050565b600061134d826112d0565b61135781856112db565b9350611362836112ec565b8060005b8381101561139357815161137a888261131d565b975061138583611335565b925050600181019050611366565b5085935050505092915050565b600081519050919050565b600082825260208201905092915050565b6000819050602082019050919050565b600082825260208201905092915050565b60006113e882611168565b6113f281856113cc565b9350611402818560208601611184565b61140b816111ae565b840191505092915050565b600061142283836113dd565b905092915050565b6000602082019050919050565b6000611442826113a0565b61144c81856113ab565b93508360208202850161145e856113bc565b8060005b8581101561149a578484038952815161147b8582611416565b94506114868361142a565b925060208a01995050600181019050611462565b50829750879550505050505092915050565b600081519050919050565b600082825260208201905092915050565b6000819050602082019050919050565b6114e1816110c4565b82525050565b60006114f383836114d8565b60208301905092915050565b6000602082019050919050565b6000611517826114ac565b61152181856114b7565b935061152c836114c8565b8060005b8381101561155d57815161154488826114e7565b975061154f836114ff565b925050600181019050611530565b5085935050505092915050565b600081519050919050565b600082825260208201905092915050565b6000819050602082019050919050565b61159f81611207565b82525050565b60006115b18383611596565b60208301905092915050565b6000602082019050919050565b60006115d58261156a565b6115df8185611575565b93506115ea83611586565b8060005b8381101561161b57815161160288826115a5565b975061160d836115bd565b9250506001810190506115ee565b5085935050505092915050565b6000610100820190508181036000830152611643818b611342565b90508181036020830152611657818a611437565b9050818103604083015261166b8189611437565b9050818103606083015261167f818861150c565b90508181036080830152611693818761150c565b905081810360a08301526116a78186611437565b905081810360c08301526116bb818561150c565b905081810360e08301526116cf81846115ca565b90509998505050505050505050565b600080fd5b600080fd5b7f4e487b7100000000000000000000000000000000000000000000000000000000600052604160045260246000fd5b611720826111ae565b810181811067ffffffffffffffff8211171561173f5761173e6116e8565b5b80604052505050565b60006117526110b0565b905061175e8282611717565b919050565b600067ffffffffffffffff82111561177e5761177d6116e8565b5b611787826111ae565b9050602081019050919050565b82818337600083830152505050565b60006117b66117b184611763565b611748565b9050828152602081018484840111156117d2576117d16116e3565b5b6117dd848285611794565b509392505050565b600082601f8301126117fa576117f96116de565b5b813561180a8482602086016117a3565b91505092915050565b600080600080600060a0868803121561182f5761182e6110ba565b5b600086013567ffffffffffffffff81111561184d5761184c6110bf565b5b611859888289016117e5565b955050602086013567ffffffffffffffff81111561187a576118796110bf565b5b611886888289016117e5565b9450506040611897888289016110e5565b93505060606118a8888289016110e5565b925050608086013567ffffffffffffffff8111156118c9576118c86110bf565b5b6118d5888289016117e5565b9150509295509295909350565b6118eb816112fc565b82525050565b600061012082019050611907600083018c6111f8565b611914602083018b6118e2565b8181036040830152611926818a6111bf565b9050818103606083015261193a81896111bf565b905061194960808301886111f8565b61195660a08301876111f8565b81810360c083015261196881866111bf565b905061197760e08301856111f8565b611985610100830184611213565b9a9950505050505050505050565b600060408201905081810360008301526119ad8185611342565b905081810360208301526119c1818461150c565b90509392505050565b600060208201905081810360008301526119e481846111bf565b905092915050565b7f4e487b7100000000000000000000000000000000000000000000000000000000600052602260045260246000fd5b60006002820490506001821680611a3357607f821691505b602082108103611a4657611a456119ec565b5b50919050565b7f4e487b7100000000000000000000000000000000000000000000000000000000600052603260045260246000fd5b7f4e487b7100000000000000000000000000000000000000000000000000000000600052601160045260246000fd5b6000611ab5826110c4565b91507fffffffffffffffffffffffffffffffffffffffffffffffffffffffffffffffff8203611ae757611ae6611a7b565b5b600182019050919050565b7f43616d706169676e20616c726561647920636f6d706c6574652e000000000000600082015250565b6000611b28601a83611173565b9150611b3382611af2565b602082019050919050565b60006020820190508181036000830152611b5781611b1b565b9050919050565b6000611b69826110c4565b9150611b74836110c4565b9250828201905080821115611b8c57611b8b611a7b565b5b92915050565b7f54686520646561646c696e206d7573742062652061206461746520696e20746860008201527f65206675747572652e0000000000000000000000000000000000000000000000602082015250565b6000611bee602983611173565b9150611bf982611b92565b604082019050919050565b60006020820190508181036000830152611c1d81611be1565b9050919050565b60008190508160005260206000209050919050565b60006020601f8301049050919050565b600082821b905092915050565b600060088302611c867fffffffffffffffffffffffffffffffffffffffffffffffffffffffffffffffff82611c49565b611c908683611c49565b95508019841693508086168417925050509392505050565b6000819050919050565b6000611ccd611cc8611cc3846110c4565b611ca8565b6110c4565b9050919050565b6000819050919050565b611ce783611cb2565b611cfb611cf382611cd4565b848454611c56565b825550505050565b600090565b611d10611d03565b611d1b818484611cde565b505050565b5b81811015611d3f57611d34600082611d08565b600181019050611d21565b5050565b601f821115611d8457611d5581611c24565b611d5e84611c39565b81016020851015611d6d578190505b611d81611d7985611c39565b830182611d20565b50505b505050565b600082821c905092915050565b6000611da760001984600802611d89565b1980831691505092915050565b6000611dc08383611d96565b9150826002028217905092915050565b611dd982611168565b67ffffffffffffffff811115611df257611df16116e8565b5b611dfc8254611a1b565b611e07828285611d43565b600060209050601f831160018114611e3a5760008415611e28578287015190505b611e328582611db4565b865550611e9a565b601f198416611e4886611c24565b60005b82811015611e7057848901518255600182019150602085019450602081019050611e4b565b86831015611e8d5784890151611e89601f891682611d96565b8355505b6001600288020188555050505b505050505050565b6000611ead826110c4565b9150611eb8836110c4565b9250828203905081811115611ed057611ecf611a7b565b5b9291505056fea2646970667358221220c61070571285f0233624cf8b3fdf16b61dc9210bb57ba6a4903bae3ad8148b2164736f6c63430008110033",
  "immutableReferences": {},
  "source": "// SPDX-License-Identifier: MIT\r\npragma solidity ^0.8.0;\r\n\r\n\r\ncontract Crowdfunding {\r\n    struct Campaign {\r\n        address payable creator;\r\n        string title;\r\n        string description;\r\n        uint goal;\r\n        uint deadline;\r\n        string image;\r\n        uint raised;\r\n        mapping(address => uint) contributions;\r\n        address[] donators;\r\n        uint[] donations;\r\n        bool complete;\r\n\r\n    }\r\n    \r\n    uint public numCampaigns;\r\n\r\n    mapping (uint => Campaign) public campaigns;\r\n    \r\n    function sayHello() public pure returns (string memory) {\r\n    return \"Hello, World!\";\r\n    }\r\n\r\n    function createCampaign(string memory _title, string memory _description, uint _goal,\r\n     uint _deadline, string memory _image) public returns(uint, address , string memory, string memory,uint ,uint ,string memory,uint,bool ) {\r\n        Campaign storage c = campaigns[numCampaigns];\r\n\r\n        require(c.deadline < block.timestamp, \"The deadlin must be a date in the future.\");\r\n\r\n        c.creator = payable(msg.sender);\r\n        c.title = _title;\r\n        c.description = _description;\r\n        c.goal = _goal;\r\n        c.deadline = _deadline;\r\n        c.image = _image;\r\n        c.raised = 0 ;\r\n        c.complete = false;\r\n\r\n        numCampaigns++;\r\n\r\n        return (numCampaigns -1,c.creator,c.title,c.description,c.goal,c.deadline,c.image,c.raised,c.complete);\r\n        }\r\n    \r\n    \r\n\r\n    function contribute(uint _campaignIndex) public payable {\r\n        Campaign storage campaign = campaigns[_campaignIndex];\r\n        require(!campaign.complete, \"Campaign already complete.\");\r\n        campaign.donators.push(msg.sender);\r\n        campaign.donations.push(msg.value);\r\n        campaign.contributions[msg.sender] += msg.value;\r\n        campaign.raised += msg.value;\r\n        if (campaign.raised >= campaign.goal) {\r\n            campaign.complete = true;\r\n            campaign.creator.transfer(campaign.raised);\r\n        }\r\n    }\r\n\r\n    function getContribute(uint _campaignIndex) view public returns (address[] memory, uint[] memory){\r\n        return (campaigns[_campaignIndex].donators, campaigns[_campaignIndex].donations);\r\n    }\r\n\r\n    // function getCampaigns() public view returns (Campaign[] memory){\r\n    //     Campaign[] memory allCampaigns = new Campaign[](numCampaigns);\r\n\r\n    //     for (uint i = 0; i < numCampaigns; i++){\r\n    //         Campaign storage _campaign = campaigns[i];\r\n    //         allCampaigns[i] = _campaign;\r\n    //     }\r\n    //         return allCampaigns;\r\n    //     }\r\n    \r\n    function getCampaigns() view public returns (address[] memory, string[] memory, string[] memory, uint[] memory, uint[] memory, string[] memory, uint[] memory, bool[] memory) {\r\n        address[] memory creators = new address[](numCampaigns);\r\n        string[] memory titles = new string[](numCampaigns);\r\n        string[] memory descriptions = new string[](numCampaigns);\r\n        uint[] memory goals = new uint[](numCampaigns);\r\n        uint[] memory deadlines = new uint[](numCampaigns);\r\n        string[] memory images = new string[](numCampaigns);\r\n        uint[] memory raisedAmounts = new uint[](numCampaigns);\r\n        bool[] memory isComplete = new bool[](numCampaigns);\r\n        \r\n        for (uint i = 0; i < numCampaigns; i++) {\r\n            Campaign storage campaign = campaigns[i];\r\n            creators[i] = campaign.creator;\r\n            titles[i] = campaign.title;\r\n            descriptions[i] = campaign.description;\r\n            goals[i] = campaign.goal;\r\n            deadlines[i] = campaign.deadline;\r\n            images[i] = campaign.image;\r\n            raisedAmounts[i] = campaign.raised;\r\n            isComplete[i] = campaign.complete;\r\n        }\r\n        \r\n        return (creators, titles, descriptions, goals, deadlines, images, raisedAmounts, isComplete);\r\n    }\r\n\r\n\r\n    // function withdraw(uint _campaignIndex) public {\r\n    //     Campaign storage campaign = campaigns[_campaignIndex];\r\n    //     require(campaign.complete == false, \"Campaign already complete.\");\r\n    //     //uint amount = campaign.contributions[msg.sender];\r\n    //     require(amount > 0, \"No contributions found.\");\r\n    //     campaign.contributions[msg.sender] = 0;\r\n    //     campaign.raised -= amount;\r\n    //     payable(msg.sender).transfer(amount);\r\n    // }\r\n}\r\n\r\n//  \r\n//truffle migrate --reset \r\n//     \r\n//truffle console\r\n//  \r\n//const instance = await Crowdfunding.deployed()\r\n\r\n//instance.createCampaign(\"A\",\"aa\",\"50\",\"6\",\"aaaa\", {from: accounts[0]})\r\n//instance.createCampaign(\"B\",\"bb\",\"40\",\"5\",\"bbbb\", {from: accounts[1]})\r\n//instance.getCampaigns()\r\n\r\n//instance.contribute(\"1\",{value:\"500000000000000000\", from: accounts[1]})\r\n//instance.getContribute(\"1\")\r\n\r\n\r\n\r\n\r\n\r\n\r\n\r\n",
  "sourcePath": "D:\\fiver\\March 2023\\crowfunding\\contracts\\crowdfunding.sol",
  "compiler": {
    "name": "solc",
    "version": "0.8.17+commit.8df45f5f.Emscripten.clang"
  },
  "schemaVersion": "3.4.13",
  "updatedAt": "2023-03-31T07:09:42.272Z",
  "networkType": "ethereum",
  "devdoc": {
    "kind": "dev",
    "methods": {},
    "version": 1
  },
  "userdoc": {
    "kind": "user",
    "methods": {},
    "version": 1
  }
}